{
  "contractName": "BlockPaperScissors",
  "abi": [
    {
      "anonymous": false,
      "inputs": [
        {
          "indexed": false,
          "internalType": "bytes32",
          "name": "gameId",
          "type": "bytes32"
        },
        {
          "indexed": false,
          "internalType": "bytes32",
          "name": "encryptedMove",
          "type": "bytes32"
        }
      ],
      "name": "FirstMovePlayed",
      "type": "event"
    },
    {
      "anonymous": false,
      "inputs": [
        {
          "indexed": false,
          "internalType": "bytes32",
          "name": "gameId",
          "type": "bytes32"
        },
        {
          "indexed": false,
          "internalType": "bytes32",
          "name": "encryptedMove",
          "type": "bytes32"
        },
        {
          "indexed": false,
          "internalType": "enum BlockPaperScissors.Move",
          "name": "decryptedMove",
          "type": "uint8"
        },
        {
          "indexed": false,
          "internalType": "bytes32",
          "name": "secret",
          "type": "bytes32"
        }
      ],
      "name": "FirstMoveRevealed",
      "type": "event"
    },
    {
      "anonymous": false,
      "inputs": [
        {
          "indexed": false,
          "internalType": "bytes32",
          "name": "gameId",
          "type": "bytes32"
        },
        {
          "indexed": false,
          "internalType": "enum BlockPaperScissors.GameResult",
          "name": "result",
          "type": "uint8"
        }
      ],
      "name": "GameEvaluated",
      "type": "event"
    },
    {
      "anonymous": false,
      "inputs": [
        {
          "indexed": false,
          "internalType": "address",
          "name": "firstPlayer",
          "type": "address"
        },
        {
          "indexed": false,
          "internalType": "address",
          "name": "secondPlayer",
          "type": "address"
        },
        {
          "indexed": false,
          "internalType": "bytes32",
          "name": "gameId",
          "type": "bytes32"
        }
      ],
      "name": "GameStarted",
      "type": "event"
    },
    {
      "anonymous": false,
      "inputs": [
        {
          "indexed": false,
          "internalType": "bytes32",
          "name": "encryptedMove",
          "type": "bytes32"
        },
        {
          "indexed": false,
          "internalType": "uint8",
          "name": "decryptedMove",
          "type": "uint8"
        },
        {
          "indexed": false,
          "internalType": "bytes32",
          "name": "secret",
          "type": "bytes32"
        }
      ],
      "name": "MoveHashCalculated",
      "type": "event"
    },
    {
      "anonymous": false,
      "inputs": [
        {
          "indexed": false,
          "internalType": "bytes32",
          "name": "gameId",
          "type": "bytes32"
        },
        {
          "indexed": false,
          "internalType": "enum BlockPaperScissors.Move",
          "name": "move",
          "type": "uint8"
        }
      ],
      "name": "SecondMovePlayed",
      "type": "event"
    },
    {
      "constant": true,
      "inputs": [
        {
          "internalType": "address",
          "name": "",
          "type": "address"
        },
        {
          "internalType": "uint256",
          "name": "",
          "type": "uint256"
        }
      ],
      "name": "playerGames",
      "outputs": [
        {
          "internalType": "bytes32",
          "name": "",
          "type": "bytes32"
        }
      ],
      "payable": false,
      "stateMutability": "view",
      "type": "function"
    },
    {
      "constant": true,
      "inputs": [
        {
          "internalType": "uint8",
          "name": "move",
          "type": "uint8"
        },
        {
          "internalType": "bytes32",
          "name": "secret",
          "type": "bytes32"
        }
      ],
      "name": "encryptMove",
      "outputs": [
        {
          "internalType": "bytes32",
          "name": "",
          "type": "bytes32"
        }
      ],
      "payable": false,
      "stateMutability": "pure",
      "type": "function"
    },
    {
      "constant": true,
      "inputs": [
        {
          "internalType": "bytes32",
          "name": "encryptedMove",
          "type": "bytes32"
        },
        {
          "internalType": "bytes32",
          "name": "secret",
          "type": "bytes32"
        }
      ],
      "name": "decryptMove",
      "outputs": [
        {
          "internalType": "uint8",
          "name": "",
          "type": "uint8"
        }
      ],
      "payable": false,
      "stateMutability": "pure",
      "type": "function"
    },
    {
      "constant": false,
      "inputs": [
        {
          "internalType": "address",
          "name": "opponent",
          "type": "address"
        },
        {
          "internalType": "bytes32",
          "name": "encryptedMove",
          "type": "bytes32"
        }
      ],
      "name": "startGame",
      "outputs": [
        {
          "internalType": "bytes32",
          "name": "gameId",
          "type": "bytes32"
        }
      ],
      "payable": false,
      "stateMutability": "nonpayable",
      "type": "function"
    },
    {
      "constant": false,
      "inputs": [
        {
          "internalType": "bytes32",
          "name": "gameId",
          "type": "bytes32"
        },
        {
          "internalType": "uint8",
          "name": "move",
          "type": "uint8"
        }
      ],
      "name": "makeMove",
      "outputs": [],
      "payable": false,
      "stateMutability": "nonpayable",
      "type": "function"
    },
    {
      "constant": false,
      "inputs": [
        {
          "internalType": "bytes32",
          "name": "gameId",
          "type": "bytes32"
        },
        {
          "internalType": "bytes32",
          "name": "secret",
          "type": "bytes32"
        }
      ],
      "name": "evaluateGame",
      "outputs": [],
      "payable": false,
      "stateMutability": "nonpayable",
      "type": "function"
    },
    {
      "constant": true,
      "inputs": [
        {
          "internalType": "bytes32",
          "name": "gameId",
          "type": "bytes32"
        }
      ],
      "name": "getGameResult",
      "outputs": [
        {
          "internalType": "uint8",
          "name": "",
          "type": "uint8"
        }
      ],
      "payable": false,
      "stateMutability": "view",
      "type": "function"
    },
    {
      "constant": true,
      "inputs": [
        {
          "internalType": "address",
          "name": "player",
          "type": "address"
        }
      ],
      "name": "getPlayerGames",
      "outputs": [
        {
          "internalType": "bytes32[]",
          "name": "",
          "type": "bytes32[]"
        }
      ],
      "payable": false,
      "stateMutability": "view",
      "type": "function"
    },
    {
      "constant": true,
      "inputs": [
        {
          "internalType": "bytes32",
          "name": "gameId",
          "type": "bytes32"
        }
      ],
      "name": "getGameData",
      "outputs": [
        {
          "internalType": "uint8",
          "name": "",
          "type": "uint8"
        },
        {
          "internalType": "address",
          "name": "",
          "type": "address"
        },
        {
          "internalType": "address",
          "name": "",
          "type": "address"
        },
        {
          "internalType": "bytes32",
          "name": "",
          "type": "bytes32"
        },
        {
          "internalType": "bytes32",
          "name": "",
          "type": "bytes32"
        },
        {
          "internalType": "uint8",
          "name": "",
          "type": "uint8"
        },
        {
          "internalType": "uint8",
          "name": "",
          "type": "uint8"
        },
        {
          "internalType": "uint8",
          "name": "",
          "type": "uint8"
        }
      ],
      "payable": false,
      "stateMutability": "view",
      "type": "function"
    }
  ],
  "bytecode": "0x608060405234801561001057600080fd5b506112fd806100206000396000f3fe608060405234801561001057600080fd5b50600436106100935760003560e01c8063337ab93711610066578063337ab937146102135780634ce8a6491461026557806361410d6014610348578063a47753e914610397578063e44bb476146103f957610093565b80630a5694c214610098578063129daf84146100fa5780631a1d2fec1461019357806329f648ab146101db575b600080fd5b6100e4600480360360408110156100ae57600080fd5b81019080803573ffffffffffffffffffffffffffffffffffffffff16906020019092919080359060200190929190505050610434565b6040518082815260200191505060405180910390f35b61013c6004803603602081101561011057600080fd5b81019080803573ffffffffffffffffffffffffffffffffffffffff169060200190929190505050610462565b6040518080602001828103825283818151815260200191508051906020019060200280838360005b8381101561017f578082015181840152602081019050610164565b505050509050019250505060405180910390f35b6101bf600480360360208110156101a957600080fd5b81019080803590602001909291905050506104f9565b604051808260ff1660ff16815260200191505060405180910390f35b610211600480360360408110156101f157600080fd5b810190808035906020019092919080359060200190929190505050610531565b005b6102496004803603604081101561022957600080fd5b81019080803590602001909291908035906020019092919050505061091e565b604051808260ff1660ff16815260200191505060405180910390f35b6102916004803603602081101561027b57600080fd5b810190808035906020019092919050505061096c565b604051808960ff1660ff1681526020018873ffffffffffffffffffffffffffffffffffffffff1673ffffffffffffffffffffffffffffffffffffffff1681526020018773ffffffffffffffffffffffffffffffffffffffff1673ffffffffffffffffffffffffffffffffffffffff1681526020018681526020018581526020018460ff1660ff1681526020018360ff1660ff1681526020018260ff1660ff1681526020019850505050505050505060405180910390f35b6103816004803603604081101561035e57600080fd5b81019080803560ff16906020019092919080359060200190929190505050610a73565b6040518082815260200191505060405180910390f35b6103e3600480360360408110156103ad57600080fd5b81019080803573ffffffffffffffffffffffffffffffffffffffff16906020019092919080359060200190929190505050610ab5565b6040518082815260200191505060405180910390f35b6104326004803603604081101561040f57600080fd5b8101908080359060200190929190803560ff169060200190929190505050610e12565b005b6002602052816000526040600020818154811061044d57fe5b90600052602060002001600091509150505481565b6060600260008373ffffffffffffffffffffffffffffffffffffffff1673ffffffffffffffffffffffffffffffffffffffff1681526020019081526020016000208054806020026020016040519081016040528092919081815260200182805480156104ed57602002820191906000526020600020905b8154815260200190600101908083116104d9575b50505050509050919050565b60006001600083815260200190815260200160002060040160029054906101000a900460ff16600381111561052a57fe5b9050919050565b6001600083815260200190815260200160002060000160019054906101000a900473ffffffffffffffffffffffffffffffffffffffff1673ffffffffffffffffffffffffffffffffffffffff163373ffffffffffffffffffffffffffffffffffffffff1614610608576040517f08c379a000000000000000000000000000000000000000000000000000000000815260040180806020018281038252601e8152602001807f53656e646572206973206e6f742074686520666972737420706c61796572000081525060200191505060405180910390fd5b6002600381111561061557fe5b6001600084815260200190815260200160002060000160009054906101000a900460ff16600381111561064457fe5b1461069a576040517f08c379a00000000000000000000000000000000000000000000000000000000081526004018080602001828103825260278152602001806112a26027913960400191505060405180910390fd5b60006001600084815260200190815260200160002060020154905060006106c1828461091e565b905060008160ff161161071f576040517f08c379a00000000000000000000000000000000000000000000000000000000081526004018080602001828103825260318152602001806112716031913960400191505060405180910390fd5b8260016000868152602001908152602001600020600301819055507f551b15ecb885c3c44fcdbe69d3e4d1bf814130fbc7c8c046c23da7dac634581384838360ff16600381111561076c57fe5b866040518085815260200184815260200183600381111561078957fe5b60ff16815260200182815260200194505050505060405180910390a18060ff1660038111156107b457fe5b6001600086815260200190815260200160002060040160006101000a81548160ff021916908360038111156107e557fe5b021790555061083a6001600086815260200190815260200160002060040160009054906101000a900460ff166001600087815260200190815260200160002060040160019054906101000a900460ff16611167565b6001600086815260200190815260200160002060040160026101000a81548160ff0219169083600381111561086b57fe5b021790555060036001600086815260200190815260200160002060000160006101000a81548160ff021916908360038111156108a357fe5b02179055507f6b6cf6a87b40c80f62500f06b7fbb2be5ab9072a19ddf4aa960051bcaba95184846001600087815260200190815260200160002060040160029054906101000a900460ff166040518083815260200182600381111561090457fe5b60ff1681526020019250505060405180910390a150505050565b6000806000600190505b60048160ff16101561095f5761093e8185610a73565b915084821415610952578092505050610966565b8080600101915050610928565b5060009150505b92915050565b6000806000806000806000806000600160008b815260200190815260200160002090508060000160009054906101000a900460ff1660038111156109ac57fe5b8160000160019054906101000a900473ffffffffffffffffffffffffffffffffffffffff168260010160009054906101000a900473ffffffffffffffffffffffffffffffffffffffff16836002015484600301548560040160009054906101000a900460ff166003811115610a1d57fe5b8660040160019054906101000a900460ff166003811115610a3a57fe5b8760040160029054906101000a900460ff166003811115610a5757fe5b9850985098509850985098509850985050919395975091939597565b60008282604051602001808360ff1660ff1660f81b81526001018281526020019250505060405160208183030381529060405280519060200120905092915050565b600080543384604051602001808481526020018373ffffffffffffffffffffffffffffffffffffffff1673ffffffffffffffffffffffffffffffffffffffff1660601b81526014018273ffffffffffffffffffffffffffffffffffffffff1673ffffffffffffffffffffffffffffffffffffffff1660601b815260140193505050506040516020818303038152906040528051906020012090506000808154809291906001019190505550600180600083815260200190815260200160002060000160006101000a81548160ff02191690836003811115610b9257fe5b0217905550336001600083815260200190815260200160002060000160016101000a81548173ffffffffffffffffffffffffffffffffffffffff021916908373ffffffffffffffffffffffffffffffffffffffff160217905550826001600083815260200190815260200160002060010160006101000a81548173ffffffffffffffffffffffffffffffffffffffff021916908373ffffffffffffffffffffffffffffffffffffffff160217905550600260003373ffffffffffffffffffffffffffffffffffffffff1673ffffffffffffffffffffffffffffffffffffffff168152602001908152602001600020819080600181540180825580915050906001820390600052602060002001600090919290919091505550600260008473ffffffffffffffffffffffffffffffffffffffff1673ffffffffffffffffffffffffffffffffffffffff1681526020019081526020016000208190806001815401808255809150509060018203906000526020600020016000909192909190915055507fcaae1144bff91d59a9ac363d9fc91a3f9afcbac47706cb7413e5d1e42169b056338483604051808473ffffffffffffffffffffffffffffffffffffffff1673ffffffffffffffffffffffffffffffffffffffff1681526020018373ffffffffffffffffffffffffffffffffffffffff1673ffffffffffffffffffffffffffffffffffffffff168152602001828152602001935050505060405180910390a18160016000838152602001908152602001600020600201819055507f96dd86d10190ad76bc20616023e550e5962c357db78e67d0f7c70050b34a84768183604051808381526020018281526020019250505060405180910390a192915050565b60038160ff161115610e8c576040517f08c379a000000000000000000000000000000000000000000000000000000000815260040180806020018281038252601a8152602001807f496e76616c6964204d6f76653a204f7574206f662072616e676500000000000081525060200191505060405180910390fd5b60008160ff1611610f05576040517f08c379a00000000000000000000000000000000000000000000000000000000081526004018080602001828103825260128152602001807f496e76616c6964204d6f76653a205a65726f000000000000000000000000000081525060200191505060405180910390fd5b6001600083815260200190815260200160002060010160009054906101000a900473ffffffffffffffffffffffffffffffffffffffff1673ffffffffffffffffffffffffffffffffffffffff163373ffffffffffffffffffffffffffffffffffffffff1614610fdc576040517f08c379a000000000000000000000000000000000000000000000000000000000815260040180806020018281038252601f8152602001807f53656e646572206973206e6f7420746865207365636f6e6420706c617965720081525060200191505060405180910390fd5b60016003811115610fe957fe5b6001600084815260200190815260200160002060000160009054906101000a900460ff16600381111561101857fe5b1461108b576040517f08c379a00000000000000000000000000000000000000000000000000000000081526004018080602001828103825260208152602001807f43616e2774206d6f766520696e2063757272656e742067616d6520737461746581525060200191505060405180910390fd5b8060ff16600381111561109a57fe5b6001600084815260200190815260200160002060040160016101000a81548160ff021916908360038111156110cb57fe5b021790555060026001600084815260200190815260200160002060000160006101000a81548160ff0219169083600381111561110357fe5b02179055507fde782ff23166af1b6f4a1db8a8e35874a7ad08c9be68b17413203bce06838748828260ff16600381111561113957fe5b6040518083815260200182600381111561114f57fe5b60ff1681526020019250505060405180910390a15050565b600081600381111561117557fe5b83600381111561118157fe5b1415611190576003905061126a565b60006001600381111561119f57fe5b8460038111156111ab57fe5b1480156111cd57506003808111156111bf57fe5b8360038111156111cb57fe5b145b806112105750600260038111156111e057fe5b8460038111156111ec57fe5b14801561120f57506001600381111561120157fe5b83600381111561120d57fe5b145b5b80611252575060038081111561122257fe5b84600381111561122e57fe5b14801561125157506002600381111561124357fe5b83600381111561124f57fe5b145b5b9050801561126457600191505061126a565b60029150505b9291505056fe4e6f2076616c6964206d6f766520636f756c642062652064656372797074656420666f7220676976656e2073656372657443616e27742072657665616c206d6f766520696e2063757272656e742067616d65207374617465a265627a7a72315820a44d9bc1121bf5b854675f77ff9e210abe04bd44a669843d211cf8f142b1fbf964736f6c63430005100032",
  "source": "// SPDX-License-Identifier: MIT\npragma solidity >=0.4.21 <0.7.0;\n\ncontract BlockPaperScissors {\n\n    enum Move { None, Block, Paper, Scissors}\n    enum GameState { None, Started, Played, Evaluated}\n    enum GameResult { None, FirstPlayerWin, SecondPlayerWin, Draw }\n    struct Game {\n        GameState state;\n        address firstPlayer;\n        address secondPlayer;\n        bytes32 firstMoveEncrypted;\n        bytes32 firstMoveSecret;\n        Move firstMove;\n        Move secondMove;\n        GameResult result;\n    }\n    \n    uint256 gameCount;\n\n    mapping(bytes32 => Game) games;\n    mapping(address => bytes32[]) public playerGames;\n\n    event GameStarted(address firstPlayer, address secondPlayer, bytes32 gameId);\n    event FirstMovePlayed(bytes32 gameId, bytes32 encryptedMove);\n    event FirstMoveRevealed(bytes32 gameId, bytes32 encryptedMove, Move decryptedMove, bytes32 secret);\n    event MoveHashCalculated(bytes32 encryptedMove, uint8 decryptedMove, bytes32 secret);\n    event SecondMovePlayed(bytes32 gameId, Move move);\n    event GameEvaluated(bytes32 gameId, GameResult result);\n\n    function encryptMove(uint8 move, bytes32 secret) public pure returns (bytes32) {\n        return keccak256(abi.encodePacked(move, secret));\n    }\n\n    function decryptMove(bytes32 encryptedMove, bytes32 secret) public pure returns (uint8) {\n        bytes32 currentHash;\n        for(uint8 i = 1; i<4; i++){\n            currentHash = encryptMove(i, secret);\n            if(currentHash == encryptedMove){\n                return(i);\n            }\n        }\n        return 0;\n    }\n\n    function startGame(address opponent, bytes32 encryptedMove) public returns(bytes32 gameId) {\n        gameId = keccak256(abi.encodePacked(gameCount, msg.sender, opponent));\n        gameCount++;\n\n        games[gameId].state = GameState.Started;\n        games[gameId].firstPlayer = msg.sender;\n        games[gameId].secondPlayer = opponent;\n\n        playerGames[msg.sender].push(gameId);\n        playerGames[opponent].push(gameId);\n\n        emit GameStarted(msg.sender, opponent, gameId);\n\n        games[gameId].firstMoveEncrypted = encryptedMove;\n        emit FirstMovePlayed(gameId, encryptedMove);\n    }\n\n    function makeMove(bytes32 gameId, uint8 move) public {\n        require(move <= 3, \"Invalid Move: Out of range\");\n        require(move > 0, \"Invalid Move: Zero\");\n        require(msg.sender == games[gameId].secondPlayer, \"Sender is not the second player\");\n        require(games[gameId].state == GameState.Started, \"Can't move in current game state\");\n\n        games[gameId].secondMove = Move(move);\n        games[gameId].state = GameState.Played;\n\n        emit SecondMovePlayed(gameId, Move(move));\n    }\n\n\n    function evaluateGame(bytes32 gameId, bytes32 secret) public {\n        require(msg.sender == games[gameId].firstPlayer, \"Sender is not the first player\");\n        require(games[gameId].state == GameState.Played, \"Can't reveal move in current game state\");\n\n        // Decrypt move using given secret\n        bytes32 encryptedMove = games[gameId].firstMoveEncrypted;\n        uint8 decryptedMove = decryptMove(encryptedMove, secret);\n        require(decryptedMove > 0, \"No valid move could be decrypted for given secret\");\n        games[gameId].firstMoveSecret = secret;\n        emit FirstMoveRevealed(gameId, encryptedMove, Move(decryptedMove), secret);\n\n        // Evaluate Game\n        games[gameId].firstMove = Move(decryptedMove);\n        games[gameId].result = _calculateGameResult(games[gameId].firstMove, games[gameId].secondMove);\n        games[gameId].state = GameState.Evaluated;\n        emit GameEvaluated(gameId, games[gameId].result);\n    }\n\n    function _calculateGameResult(Move firstMove, Move secondMove) internal returns(GameResult){\n        if(firstMove == secondMove){\n            return GameResult.Draw;\n        }\n        bool firstPlayerWon = (firstMove == Move.Block && secondMove == Move.Scissors) ||\n            (firstMove == Move.Paper && secondMove == Move.Block) ||\n            (firstMove == Move.Scissors && secondMove == Move.Paper);\n        if(firstPlayerWon){\n            return GameResult.FirstPlayerWin;\n        }\n        return GameResult.SecondPlayerWin;\n    }\n\n    function getGameResult(bytes32 gameId) public view returns(uint8){\n        return uint8(games[gameId].result);\n    }\n    \n    function getPlayerGames(address player) public view returns(bytes32[] memory){\n        return playerGames[player];\n    }\n\n    function getGameData(bytes32 gameId) public view returns(uint8, address, address, bytes32, bytes32, uint8, uint8, uint8){\n        Game storage game = games[gameId];\n        return (uint8(game.state), game.firstPlayer, game.secondPlayer, game.firstMoveEncrypted, game.firstMoveSecret, uint8(game.firstMove), uint8(game.secondMove), uint8(game.result));\n    }\n}\n",
  "sourcePath": "/Users/christian/PrivateRepos/BlockPaperScissors/contracts/BlockPaperScissors.sol",
  "compiler": {
    "name": "solc",
    "version": "0.5.16+commit.9c3226ce.Emscripten.clang"
  },
  "schemaVersion": "3.4.1",
  "updatedAt": "2021-05-30T12:25:14.868Z",
  "networkType": "ethereum",
  "devdoc": {
    "methods": {}
  },
  "userdoc": {
    "methods": {}
  }
}